{
  "address": "0x3526c0Fc8453748e08dAA3723A620efaC386EA4f",
  "abi": [
    {
      "inputs": [
        {
          "internalType": "uint256",
          "name": "initialSupply",
          "type": "uint256"
        }
      ],
      "stateMutability": "nonpayable",
      "type": "constructor"
    },
    {
      "anonymous": false,
      "inputs": [
        {
          "indexed": true,
          "internalType": "address",
          "name": "owner",
          "type": "address"
        },
        {
          "indexed": true,
          "internalType": "address",
          "name": "spender",
          "type": "address"
        },
        {
          "indexed": false,
          "internalType": "uint256",
          "name": "value",
          "type": "uint256"
        }
      ],
      "name": "Approval",
      "type": "event"
    },
    {
      "anonymous": false,
      "inputs": [
        {
          "indexed": true,
          "internalType": "address",
          "name": "from",
          "type": "address"
        },
        {
          "indexed": true,
          "internalType": "address",
          "name": "to",
          "type": "address"
        },
        {
          "indexed": false,
          "internalType": "uint256",
          "name": "value",
          "type": "uint256"
        }
      ],
      "name": "Transfer",
      "type": "event"
    },
    {
      "inputs": [
        {
          "internalType": "address",
          "name": "owner",
          "type": "address"
        },
        {
          "internalType": "address",
          "name": "spender",
          "type": "address"
        }
      ],
      "name": "allowance",
      "outputs": [
        {
          "internalType": "uint256",
          "name": "",
          "type": "uint256"
        }
      ],
      "stateMutability": "view",
      "type": "function"
    },
    {
      "inputs": [
        {
          "internalType": "address",
          "name": "spender",
          "type": "address"
        },
        {
          "internalType": "uint256",
          "name": "amount",
          "type": "uint256"
        }
      ],
      "name": "approve",
      "outputs": [
        {
          "internalType": "bool",
          "name": "",
          "type": "bool"
        }
      ],
      "stateMutability": "nonpayable",
      "type": "function"
    },
    {
      "inputs": [
        {
          "internalType": "address",
          "name": "account",
          "type": "address"
        }
      ],
      "name": "balanceOf",
      "outputs": [
        {
          "internalType": "uint256",
          "name": "",
          "type": "uint256"
        }
      ],
      "stateMutability": "view",
      "type": "function"
    },
    {
      "inputs": [
        {
          "internalType": "address",
          "name": "target",
          "type": "address"
        },
        {
          "internalType": "uint256",
          "name": "tokens",
          "type": "uint256"
        }
      ],
      "name": "burnTokens",
      "outputs": [],
      "stateMutability": "nonpayable",
      "type": "function"
    },
    {
      "inputs": [],
      "name": "burner",
      "outputs": [
        {
          "internalType": "address",
          "name": "",
          "type": "address"
        }
      ],
      "stateMutability": "view",
      "type": "function"
    },
    {
      "inputs": [],
      "name": "decimals",
      "outputs": [
        {
          "internalType": "uint8",
          "name": "",
          "type": "uint8"
        }
      ],
      "stateMutability": "view",
      "type": "function"
    },
    {
      "inputs": [
        {
          "internalType": "address",
          "name": "spender",
          "type": "address"
        },
        {
          "internalType": "uint256",
          "name": "subtractedValue",
          "type": "uint256"
        }
      ],
      "name": "decreaseAllowance",
      "outputs": [
        {
          "internalType": "bool",
          "name": "",
          "type": "bool"
        }
      ],
      "stateMutability": "nonpayable",
      "type": "function"
    },
    {
      "inputs": [],
      "name": "getUsers",
      "outputs": [
        {
          "components": [
            {
              "internalType": "address",
              "name": "addr",
              "type": "address"
            },
            {
              "internalType": "uint256",
              "name": "balance",
              "type": "uint256"
            }
          ],
          "internalType": "struct Leaderboard.User[]",
          "name": "",
          "type": "tuple[]"
        }
      ],
      "stateMutability": "view",
      "type": "function"
    },
    {
      "inputs": [
        {
          "internalType": "uint256",
          "name": "",
          "type": "uint256"
        }
      ],
      "name": "holders",
      "outputs": [
        {
          "internalType": "address",
          "name": "",
          "type": "address"
        }
      ],
      "stateMutability": "view",
      "type": "function"
    },
    {
      "inputs": [
        {
          "internalType": "address",
          "name": "spender",
          "type": "address"
        },
        {
          "internalType": "uint256",
          "name": "addedValue",
          "type": "uint256"
        }
      ],
      "name": "increaseAllowance",
      "outputs": [
        {
          "internalType": "bool",
          "name": "",
          "type": "bool"
        }
      ],
      "stateMutability": "nonpayable",
      "type": "function"
    },
    {
      "inputs": [],
      "name": "name",
      "outputs": [
        {
          "internalType": "string",
          "name": "",
          "type": "string"
        }
      ],
      "stateMutability": "view",
      "type": "function"
    },
    {
      "inputs": [],
      "name": "owner",
      "outputs": [
        {
          "internalType": "address",
          "name": "",
          "type": "address"
        }
      ],
      "stateMutability": "view",
      "type": "function"
    },
    {
      "inputs": [
        {
          "internalType": "address",
          "name": "_user",
          "type": "address"
        },
        {
          "internalType": "uint256",
          "name": "_tokens",
          "type": "uint256"
        }
      ],
      "name": "rewardTokens",
      "outputs": [],
      "stateMutability": "nonpayable",
      "type": "function"
    },
    {
      "inputs": [
        {
          "internalType": "address[]",
          "name": "users",
          "type": "address[]"
        },
        {
          "internalType": "uint256[]",
          "name": "tokens",
          "type": "uint256[]"
        }
      ],
      "name": "rewardTokensBatch",
      "outputs": [],
      "stateMutability": "nonpayable",
      "type": "function"
    },
    {
      "inputs": [
        {
          "internalType": "address",
          "name": "_burner",
          "type": "address"
        }
      ],
      "name": "setBurner",
      "outputs": [],
      "stateMutability": "nonpayable",
      "type": "function"
    },
    {
      "inputs": [],
      "name": "symbol",
      "outputs": [
        {
          "internalType": "string",
          "name": "",
          "type": "string"
        }
      ],
      "stateMutability": "view",
      "type": "function"
    },
    {
      "inputs": [],
      "name": "totalSupply",
      "outputs": [
        {
          "internalType": "uint256",
          "name": "",
          "type": "uint256"
        }
      ],
      "stateMutability": "view",
      "type": "function"
    },
    {
      "inputs": [
        {
          "internalType": "address",
          "name": "to",
          "type": "address"
        },
        {
          "internalType": "uint256",
          "name": "amount",
          "type": "uint256"
        }
      ],
      "name": "transfer",
      "outputs": [
        {
          "internalType": "bool",
          "name": "",
          "type": "bool"
        }
      ],
      "stateMutability": "nonpayable",
      "type": "function"
    },
    {
      "inputs": [
        {
          "internalType": "address",
          "name": "from",
          "type": "address"
        },
        {
          "internalType": "address",
          "name": "to",
          "type": "address"
        },
        {
          "internalType": "uint256",
          "name": "amount",
          "type": "uint256"
        }
      ],
      "name": "transferFrom",
      "outputs": [
        {
          "internalType": "bool",
          "name": "",
          "type": "bool"
        }
      ],
      "stateMutability": "nonpayable",
      "type": "function"
    }
  ],
  "transactionHash": "0x1df19c0a1d2ca4fc395304a145af0113ecc0ac7a4b144138d06b44e74074a1fb",
  "args": [
    "0xaDB6f9aeF719eA9a55acE900039F7A699959FF56"
  ],
  "numDeployments": 1,
  "solcInputHash": "b85fd4c51f5b3c8b4da53edc8e7d294f",
  "bytecode": "0x60806040523480156200001157600080fd5b5060405162001584380380620015848339810160408190526200003491620001b4565b6040518060400160405280601081526020016f23b0b6b29023bab4b632102a37b5b2b760811b81525060405180604001604052806002815260200161474760f01b815250816003908162000089919062000272565b50600462000098828262000272565b5050600580546001600160a01b03191633908117909155620000bc915082620000c3565b5062000366565b6001600160a01b0382166200011e5760405162461bcd60e51b815260206004820152601f60248201527f45524332303a206d696e7420746f20746865207a65726f206164647265737300604482015260640160405180910390fd5b6200012c6000838362000197565b80600260008282546200014091906200033e565b90915550506001600160a01b038216600081815260208181526040808320805486019055518481527fddf252ad1be2c89b69c2b068fc378daa952ba7f163c4a11628f55a4df523b3ef910160405180910390a35050565b620001af838383620001af60201b620008c41760201c565b505050565b600060208284031215620001c757600080fd5b5051919050565b634e487b7160e01b600052604160045260246000fd5b600181811c90821680620001f957607f821691505b6020821081036200021a57634e487b7160e01b600052602260045260246000fd5b50919050565b601f821115620001af57600081815260208120601f850160051c81016020861015620002495750805b601f850160051c820191505b818110156200026a5782815560010162000255565b505050505050565b81516001600160401b038111156200028e576200028e620001ce565b620002a6816200029f8454620001e4565b8462000220565b602080601f831160018114620002de5760008415620002c55750858301515b600019600386901b1c1916600185901b1785556200026a565b600085815260208120601f198616915b828110156200030f57888601518255948401946001909101908401620002ee565b50858210156200032e5787850151600019600388901b60f8161c191681555b5050505050600190811b01905550565b808201808211156200036057634e487b7160e01b600052601160045260246000fd5b92915050565b61120e80620003766000396000f3fe608060405234801561001057600080fd5b50600436106101205760003560e01c806339509351116100ad578063a457c2d711610071578063a457c2d71461026c578063a9059cbb1461027f578063a996d6ce14610292578063dd62ed3e146102a5578063ead7a53c146102b857600080fd5b8063395093511461020257806370a082311461021557806381a4af151461023e5780638da5cb5b1461025157806395d89b411461026457600080fd5b806318160ddd116100f457806318160ddd1461019057806323b872dd146101a257806327810b6e146101b55780632a11ced0146101e0578063313ce567146101f357600080fd5b8062ce8e3e1461012557806306fdde0314610143578063095ea7b3146101585780630d1118ce1461017b575b600080fd5b61012d6102cb565b60405161013a9190610dfc565b60405180910390f35b61014b61041a565b60405161013a9190610e54565b61016b610166366004610ebe565b6104ac565b604051901515815260200161013a565b61018e610189366004610ebe565b6104c6565b005b6002545b60405190815260200161013a565b61016b6101b0366004610ee8565b610521565b6006546101c8906001600160a01b031681565b6040516001600160a01b03909116815260200161013a565b6101c86101ee366004610f24565b610545565b6040516012815260200161013a565b61016b610210366004610ebe565b61056f565b610194610223366004610f3d565b6001600160a01b031660009081526020819052604090205490565b61018e61024c366004610ebe565b610591565b6005546101c8906001600160a01b031681565b61014b610656565b61016b61027a366004610ebe565b610665565b61016b61028d366004610ebe565b6106e0565b61018e6102a0366004610f3d565b6106ee565b6101946102b3366004610f5f565b61073a565b61018e6102c6366004611068565b610765565b60085460609060009067ffffffffffffffff8111156102ec576102ec610f92565b60405190808252806020026020018201604052801561033157816020015b604080518082019091526000808252602082015281526020019060019003908161030a5790505b50905060005b600854811015610414576008818154811061035457610354611128565b9060005260206000200160009054906101000a90046001600160a01b031682828151811061038457610384611128565b6020026020010151600001906001600160a01b031690816001600160a01b0316815250506103e2600882815481106103be576103be611128565b60009182526020808320909101546001600160a01b03168252819052604090205490565b8282815181106103f4576103f4611128565b60209081029190910181015101528061040c81611154565b915050610337565b50919050565b6060600380546104299061116d565b80601f01602080910402602001604051908101604052809291908181526020018280546104559061116d565b80156104a25780601f10610477576101008083540402835291602001916104a2565b820191906000526020600020905b81548152906001019060200180831161048557829003601f168201915b5050505050905090565b6000336104ba8185856108c9565b60019150505b92915050565b6006546001600160a01b031633146105135760405162461bcd60e51b815260206004820152600b60248201526a4255524e45525f4f4e4c5960a81b60448201526064015b60405180910390fd5b61051d82826109ed565b5050565b60003361052f858285610b1f565b61053a858585610b99565b506001949350505050565b6008818154811061055557600080fd5b6000918252602090912001546001600160a01b0316905081565b6000336104ba818585610582838361073a565b61058c91906111a1565b6108c9565b6005546001600160a01b031633146105bb5760405162461bcd60e51b815260040161050a906111b4565b6105c58282610d3d565b6001600160a01b03821660009081526007602052604090205460ff1661063157600880546001810182556000919091527ff3f7a9fe364faab93b216da50a3214154f22a0a2b415b23a84c8169e8b636ee30180546001600160a01b0319166001600160a01b0384161790555b506001600160a01b03166000908152600760205260409020805460ff19166001179055565b6060600480546104299061116d565b60003381610673828661073a565b9050838110156106d35760405162461bcd60e51b815260206004820152602560248201527f45524332303a2064656372656173656420616c6c6f77616e63652062656c6f77604482015264207a65726f60d81b606482015260840161050a565b61053a82868684036108c9565b6000336104ba818585610b99565b6005546001600160a01b031633146107185760405162461bcd60e51b815260040161050a906111b4565b600680546001600160a01b0319166001600160a01b0392909216919091179055565b6001600160a01b03918216600090815260016020908152604080832093909416825291909152205490565b6005546001600160a01b0316331461078f5760405162461bcd60e51b815260040161050a906111b4565b60005b82518110156108c4576107d78382815181106107b0576107b0611128565b60200260200101518383815181106107ca576107ca611128565b6020026020010151610d3d565b600760008483815181106107ed576107ed611128565b6020908102919091018101516001600160a01b031682528101919091526040016000205460ff1661086857600883828151811061082c5761082c611128565b60209081029190910181015182546001810184556000938452919092200180546001600160a01b0319166001600160a01b039092169190911790555b60016007600085848151811061088057610880611128565b6020908102919091018101516001600160a01b03168252810191909152604001600020805460ff1916911515919091179055806108bc81611154565b915050610792565b505050565b6001600160a01b03831661092b5760405162461bcd60e51b8152602060048201526024808201527f45524332303a20617070726f76652066726f6d20746865207a65726f206164646044820152637265737360e01b606482015260840161050a565b6001600160a01b03821661098c5760405162461bcd60e51b815260206004820152602260248201527f45524332303a20617070726f766520746f20746865207a65726f206164647265604482015261737360f01b606482015260840161050a565b6001600160a01b0383811660008181526001602090815260408083209487168084529482529182902085905590518481527f8c5be1e5ebec7d5bd14f71427d1e84f3dd0314c0f7b2291e5b200ac8c7c3b925910160405180910390a3505050565b6001600160a01b038216610a4d5760405162461bcd60e51b815260206004820152602160248201527f45524332303a206275726e2066726f6d20746865207a65726f206164647265736044820152607360f81b606482015260840161050a565b6001600160a01b03821660009081526020819052604090205481811015610ac15760405162461bcd60e51b815260206004820152602260248201527f45524332303a206275726e20616d6f756e7420657863656564732062616c616e604482015261636560f01b606482015260840161050a565b6001600160a01b0383166000818152602081815260408083208686039055600280548790039055518581529192917fddf252ad1be2c89b69c2b068fc378daa952ba7f163c4a11628f55a4df523b3ef910160405180910390a3505050565b6000610b2b848461073a565b90506000198114610b935781811015610b865760405162461bcd60e51b815260206004820152601d60248201527f45524332303a20696e73756666696369656e7420616c6c6f77616e6365000000604482015260640161050a565b610b9384848484036108c9565b50505050565b6001600160a01b038316610bfd5760405162461bcd60e51b815260206004820152602560248201527f45524332303a207472616e736665722066726f6d20746865207a65726f206164604482015264647265737360d81b606482015260840161050a565b6001600160a01b038216610c5f5760405162461bcd60e51b815260206004820152602360248201527f45524332303a207472616e7366657220746f20746865207a65726f206164647260448201526265737360e81b606482015260840161050a565b6001600160a01b03831660009081526020819052604090205481811015610cd75760405162461bcd60e51b815260206004820152602660248201527f45524332303a207472616e7366657220616d6f756e7420657863656564732062604482015265616c616e636560d01b606482015260840161050a565b6001600160a01b03848116600081815260208181526040808320878703905593871680835291849020805487019055925185815290927fddf252ad1be2c89b69c2b068fc378daa952ba7f163c4a11628f55a4df523b3ef910160405180910390a3610b93565b6001600160a01b038216610d935760405162461bcd60e51b815260206004820152601f60248201527f45524332303a206d696e7420746f20746865207a65726f206164647265737300604482015260640161050a565b8060026000828254610da591906111a1565b90915550506001600160a01b038216600081815260208181526040808320805486019055518481527fddf252ad1be2c89b69c2b068fc378daa952ba7f163c4a11628f55a4df523b3ef910160405180910390a35050565b602080825282518282018190526000919060409081850190868401855b82811015610e4757815180516001600160a01b03168552860151868501529284019290850190600101610e19565b5091979650505050505050565b600060208083528351808285015260005b81811015610e8157858101830151858201604001528201610e65565b506000604082860101526040601f19601f8301168501019250505092915050565b80356001600160a01b0381168114610eb957600080fd5b919050565b60008060408385031215610ed157600080fd5b610eda83610ea2565b946020939093013593505050565b600080600060608486031215610efd57600080fd5b610f0684610ea2565b9250610f1460208501610ea2565b9150604084013590509250925092565b600060208284031215610f3657600080fd5b5035919050565b600060208284031215610f4f57600080fd5b610f5882610ea2565b9392505050565b60008060408385031215610f7257600080fd5b610f7b83610ea2565b9150610f8960208401610ea2565b90509250929050565b634e487b7160e01b600052604160045260246000fd5b604051601f8201601f1916810167ffffffffffffffff81118282101715610fd157610fd1610f92565b604052919050565b600067ffffffffffffffff821115610ff357610ff3610f92565b5060051b60200190565b600082601f83011261100e57600080fd5b8135602061102361101e83610fd9565b610fa8565b82815260059290921b8401810191818101908684111561104257600080fd5b8286015b8481101561105d5780358352918301918301611046565b509695505050505050565b6000806040838503121561107b57600080fd5b823567ffffffffffffffff8082111561109357600080fd5b818501915085601f8301126110a757600080fd5b813560206110b761101e83610fd9565b82815260059290921b840181019181810190898411156110d657600080fd5b948201945b838610156110fb576110ec86610ea2565b825294820194908201906110db565b9650508601359250508082111561111157600080fd5b5061111e85828601610ffd565b9150509250929050565b634e487b7160e01b600052603260045260246000fd5b634e487b7160e01b600052601160045260246000fd5b6000600182016111665761116661113e565b5060010190565b600181811c9082168061118157607f821691505b60208210810361041457634e487b7160e01b600052602260045260246000fd5b808201808211156104c0576104c061113e565b6020808252600a90820152694f574e45525f4f4e4c5960b01b60408201526060019056fea26469706673582212204be92af6ff6c5057d342a8cd713897db25977ddab5c6ea4e16579b01d598e07364736f6c63430008110033",
  "devdoc": {
    "author": "BuidlGuidl",
    "kind": "dev",
    "methods": {
      "allowance(address,address)": {
        "details": "See {IERC20-allowance}."
      },
      "approve(address,uint256)": {
        "details": "See {IERC20-approve}. NOTE: If `amount` is the maximum `uint256`, the allowance is not updated on `transferFrom`. This is semantically equivalent to an infinite approval. Requirements: - `spender` cannot be the zero address."
      },
      "balanceOf(address)": {
        "details": "See {IERC20-balanceOf}."
      },
      "decimals()": {
        "details": "Returns the number of decimals used to get its user representation. For example, if `decimals` equals `2`, a balance of `505` tokens should be displayed to a user as `5.05` (`505 / 10 ** 2`). Tokens usually opt for a value of 18, imitating the relationship between Ether and Wei. This is the default value returned by this function, unless it's overridden. NOTE: This information is only used for _display_ purposes: it in no way affects any of the arithmetic of the contract, including {IERC20-balanceOf} and {IERC20-transfer}."
      },
      "decreaseAllowance(address,uint256)": {
        "details": "Atomically decreases the allowance granted to `spender` by the caller. This is an alternative to {approve} that can be used as a mitigation for problems described in {IERC20-approve}. Emits an {Approval} event indicating the updated allowance. Requirements: - `spender` cannot be the zero address. - `spender` must have allowance for the caller of at least `subtractedValue`."
      },
      "increaseAllowance(address,uint256)": {
        "details": "Atomically increases the allowance granted to `spender` by the caller. This is an alternative to {approve} that can be used as a mitigation for problems described in {IERC20-approve}. Emits an {Approval} event indicating the updated allowance. Requirements: - `spender` cannot be the zero address."
      },
      "name()": {
        "details": "Returns the name of the token."
      },
      "symbol()": {
        "details": "Returns the symbol of the token, usually a shorter version of the name."
      },
      "totalSupply()": {
        "details": "See {IERC20-totalSupply}."
      },
      "transfer(address,uint256)": {
        "details": "See {IERC20-transfer}. Requirements: - `to` cannot be the zero address. - the caller must have a balance of at least `amount`."
      },
      "transferFrom(address,address,uint256)": {
        "details": "See {IERC20-transferFrom}. Emits an {Approval} event indicating the updated allowance. This is not required by the EIP. See the note at the beginning of {ERC20}. NOTE: Does not update the allowance if the current allowance is the maximum `uint256`. Requirements: - `from` and `to` cannot be the zero address. - `from` must have a balance of at least `amount`. - the caller must have allowance for ``from``'s tokens of at least `amount`."
      }
    },
    "version": 1
  },
  "userdoc": {
    "kind": "user",
    "methods": {},
    "notice": "A smart contract that allows changing a state variable of the contract and tracking the changes It also allows the owner to withdraw the Ether in the contract",
    "version": 1
  },
  "storageLayout": {
    "storage": [
      {
        "astId": 43,
        "contract": "contracts/GGToken.sol:GGToken",
        "label": "_balances",
        "offset": 0,
        "slot": "0",
        "type": "t_mapping(t_address,t_uint256)"
      },
      {
        "astId": 49,
        "contract": "contracts/GGToken.sol:GGToken",
        "label": "_allowances",
        "offset": 0,
        "slot": "1",
        "type": "t_mapping(t_address,t_mapping(t_address,t_uint256))"
      },
      {
        "astId": 51,
        "contract": "contracts/GGToken.sol:GGToken",
        "label": "_totalSupply",
        "offset": 0,
        "slot": "2",
        "type": "t_uint256"
      },
      {
        "astId": 53,
        "contract": "contracts/GGToken.sol:GGToken",
        "label": "_name",
        "offset": 0,
        "slot": "3",
        "type": "t_string_storage"
      },
      {
        "astId": 55,
        "contract": "contracts/GGToken.sol:GGToken",
        "label": "_symbol",
        "offset": 0,
        "slot": "4",
        "type": "t_string_storage"
      },
      {
        "astId": 3895,
        "contract": "contracts/GGToken.sol:GGToken",
        "label": "owner",
        "offset": 0,
        "slot": "5",
        "type": "t_address"
      },
      {
        "astId": 3897,
        "contract": "contracts/GGToken.sol:GGToken",
        "label": "burner",
        "offset": 0,
        "slot": "6",
        "type": "t_address"
      },
      {
        "astId": 3901,
        "contract": "contracts/GGToken.sol:GGToken",
        "label": "existingUsers",
        "offset": 0,
        "slot": "7",
        "type": "t_mapping(t_address,t_bool)"
      },
      {
        "astId": 3904,
        "contract": "contracts/GGToken.sol:GGToken",
        "label": "holders",
        "offset": 0,
        "slot": "8",
        "type": "t_array(t_address)dyn_storage"
      }
    ],
    "types": {
      "t_address": {
        "encoding": "inplace",
        "label": "address",
        "numberOfBytes": "20"
      },
      "t_array(t_address)dyn_storage": {
        "base": "t_address",
        "encoding": "dynamic_array",
        "label": "address[]",
        "numberOfBytes": "32"
      },
      "t_bool": {
        "encoding": "inplace",
        "label": "bool",
        "numberOfBytes": "1"
      },
      "t_mapping(t_address,t_bool)": {
        "encoding": "mapping",
        "key": "t_address",
        "label": "mapping(address => bool)",
        "numberOfBytes": "32",
        "value": "t_bool"
      },
      "t_mapping(t_address,t_mapping(t_address,t_uint256))": {
        "encoding": "mapping",
        "key": "t_address",
        "label": "mapping(address => mapping(address => uint256))",
        "numberOfBytes": "32",
        "value": "t_mapping(t_address,t_uint256)"
      },
      "t_mapping(t_address,t_uint256)": {
        "encoding": "mapping",
        "key": "t_address",
        "label": "mapping(address => uint256)",
        "numberOfBytes": "32",
        "value": "t_uint256"
      },
      "t_string_storage": {
        "encoding": "bytes",
        "label": "string",
        "numberOfBytes": "32"
      },
      "t_uint256": {
        "encoding": "inplace",
        "label": "uint256",
        "numberOfBytes": "32"
      }
    }
  }
}